{
  "contractName": "Lottery",
  "abi": [
    {
      "inputs": [],
      "stateMutability": "nonpayable",
      "type": "constructor"
    },
    {
      "inputs": [],
      "name": "manager",
      "outputs": [
        {
          "internalType": "address",
          "name": "",
          "type": "address"
        }
      ],
      "stateMutability": "view",
      "type": "function",
      "constant": true
    },
    {
      "inputs": [
        {
          "internalType": "uint256",
          "name": "",
          "type": "uint256"
        }
      ],
      "name": "players",
      "outputs": [
        {
          "internalType": "address",
          "name": "",
          "type": "address"
        }
      ],
      "stateMutability": "view",
      "type": "function",
      "constant": true
    },
    {
      "inputs": [],
      "name": "winner",
      "outputs": [
        {
          "internalType": "address payable",
          "name": "",
          "type": "address"
        }
      ],
      "stateMutability": "view",
      "type": "function",
      "constant": true
    },
    {
      "inputs": [],
      "name": "enter",
      "outputs": [],
      "stateMutability": "payable",
      "type": "function",
      "payable": true
    },
    {
      "inputs": [],
      "name": "getPlayers",
      "outputs": [
        {
          "internalType": "uint256",
          "name": "",
          "type": "uint256"
        }
      ],
      "stateMutability": "view",
      "type": "function",
      "constant": true
    },
    {
      "inputs": [],
      "name": "pickWinnerAndTransferMoney",
      "outputs": [],
      "stateMutability": "nonpayable",
      "type": "function"
    }
  ],
  "bytecode": "0x608060405234801561001057600080fd5b5033600160006101000a81548173ffffffffffffffffffffffffffffffffffffffff021916908373ffffffffffffffffffffffffffffffffffffffff160217905550610916806100616000396000f3fe6080604052600436106100555760003560e01c8063481c6a751461005a5780638b5b9ccc14610085578063dfbf53ae146100b0578063e97dcb62146100db578063e9b21c1f146100e5578063f71d96cb146100fc575b600080fd5b34801561006657600080fd5b5061006f610139565b60405161007c9190610544565b60405180910390f35b34801561009157600080fd5b5061009a61015f565b6040516100a79190610578565b60405180910390f35b3480156100bc57600080fd5b506100c561016b565b6040516100d291906105b4565b60405180910390f35b6100e3610191565b005b3480156100f157600080fd5b506100fa610245565b005b34801561010857600080fd5b50610123600480360381019061011e9190610600565b6103e7565b6040516101309190610544565b60405180910390f35b600160009054906101000a900473ffffffffffffffffffffffffffffffffffffffff1681565b60008080549050905090565b600260009054906101000a900473ffffffffffffffffffffffffffffffffffffffff1681565b6000655af3107a40009050803410156101df576040517f08c379a00000000000000000000000000000000000000000000000000000000081526004016101d69061068a565b60405180910390fd5b6000339080600181540180825580915050600190039060005260206000200160009091909190916101000a81548173ffffffffffffffffffffffffffffffffffffffff021916908373ffffffffffffffffffffffffffffffffffffffff16021790555050565b60008080549050610254610426565b61025e91906106d9565b8154811061026f5761026e61070a565b5b9060005260206000200160009054906101000a900473ffffffffffffffffffffffffffffffffffffffff16600260006101000a81548173ffffffffffffffffffffffffffffffffffffffff021916908373ffffffffffffffffffffffffffffffffffffffff160217905550600260009054906101000a900473ffffffffffffffffffffffffffffffffffffffff1673ffffffffffffffffffffffffffffffffffffffff166108fc479081150290604051600060405180830381858888f19350505050158015610342573d6000803e3d6000fd5b50600067ffffffffffffffff81111561035e5761035d610739565b5b60405190808252806020026020018201604052801561038c5781602001602082028036833780820191505090505b50600090805190602001906103a292919061045c565b506000600260006101000a81548173ffffffffffffffffffffffffffffffffffffffff021916908373ffffffffffffffffffffffffffffffffffffffff160217905550565b600081815481106103f757600080fd5b906000526020600020016000915054906101000a900473ffffffffffffffffffffffffffffffffffffffff1681565b60004442600060405160200161043e939291906108a7565b6040516020818303038152906040528051906020012060001c905090565b8280548282559060005260206000209081019282156104d5579160200282015b828111156104d45782518260006101000a81548173ffffffffffffffffffffffffffffffffffffffff021916908373ffffffffffffffffffffffffffffffffffffffff1602179055509160200191906001019061047c565b5b5090506104e291906104e6565b5090565b5b808211156104ff5760008160009055506001016104e7565b5090565b600073ffffffffffffffffffffffffffffffffffffffff82169050919050565b600061052e82610503565b9050919050565b61053e81610523565b82525050565b60006020820190506105596000830184610535565b92915050565b6000819050919050565b6105728161055f565b82525050565b600060208201905061058d6000830184610569565b92915050565b600061059e82610503565b9050919050565b6105ae81610593565b82525050565b60006020820190506105c960008301846105a5565b92915050565b600080fd5b6105dd8161055f565b81146105e857600080fd5b50565b6000813590506105fa816105d4565b92915050565b600060208284031215610616576106156105cf565b5b6000610624848285016105eb565b91505092915050565b600082825260208201905092915050565b7f6d6f726520657468657220697320726571756972656420746f20656e7465722e600082015250565b600061067460208361062d565b915061067f8261063e565b602082019050919050565b600060208201905081810360008301526106a381610667565b9050919050565b7f4e487b7100000000000000000000000000000000000000000000000000000000600052601260045260246000fd5b60006106e48261055f565b91506106ef8361055f565b9250826106ff576106fe6106aa565b5b828206905092915050565b7f4e487b7100000000000000000000000000000000000000000000000000000000600052603260045260246000fd5b7f4e487b7100000000000000000000000000000000000000000000000000000000600052604160045260246000fd5b6000819050919050565b61078361077e8261055f565b610768565b82525050565b600081549050919050565b600081905092915050565b60008190508160005260206000209050919050565b6107bd81610523565b82525050565b60006107cf83836107b4565b60208301905092915050565b60008160001c9050919050565b600073ffffffffffffffffffffffffffffffffffffffff82169050919050565b600061081b610816836107db565b6107e8565b9050919050565b600061082e8254610808565b9050919050565b6000600182019050919050565b600061084d82610789565b6108578185610794565b93506108628361079f565b8060005b8381101561089a5761087782610822565b61088188826107c3565b975061088c83610835565b925050600181019050610866565b5085935050505092915050565b60006108b38286610772565b6020820191506108c38285610772565b6020820191506108d38284610842565b915081905094935050505056fea26469706673582212205a228897d75e61365af3704f7ec7b88b7674e66c1334eedf7337bf2164c2a0c764736f6c634300080e0033",
  "immutableReferences": {},
  "source": "// SPDX-License-Identifier: UNLICENSED\r\npragma solidity ^0.8.13;\r\n\r\ncontract Lottery {\r\n  address[] public players;\r\n  address public manager;\r\n  address payable public winner;\r\n\r\n  constructor() {\r\n    manager = msg.sender;\r\n  }\r\n\r\n  function enter() public payable {\r\n    uint256 minEther = 0.0001 ether;\r\n    require(msg.value >= minEther, \"more ether is required to enter.\");\r\n    players.push(msg.sender);\r\n  }\r\n\r\n  function random() private view returns (uint256) {\r\n    return\r\n      uint256(\r\n        keccak256(abi.encodePacked(block.difficulty, block.timestamp, players))\r\n      );\r\n  }\r\n\r\n  function getPlayers() public view returns (uint256) {\r\n    return players.length;\r\n  }\r\n\r\n  function pickWinnerAndTransferMoney() public {\r\n    winner = payable(players[random() % players.length]);\r\n    winner.transfer(address(this).balance);\r\n    players = new address[](0);\r\n    winner = payable(address(0));\r\n  }\r\n}\r\n",
  "sourcePath": "C:\\Users\\park\\Desktop\\project\\lottery\\contracts\\Lottery.sol",
  "compiler": {
    "name": "solc",
    "version": "0.8.14+commit.80d49f37.Emscripten.clang"
  },
  "schemaVersion": "3.4.10",
  "updatedAt": "2023-02-12T07:37:12.357Z",
  "networkType": "ethereum",
  "devdoc": {
    "kind": "dev",
    "methods": {},
    "version": 1
  },
  "userdoc": {
    "kind": "user",
    "methods": {},
    "version": 1
  }
}